{"project/contracts/ProductTracking.sol":{"ProductTracking":{"abi":[{"inputs":[],"stateMutability":"nonpayable","type":"constructor"},{"inputs":[{"internalType":"address","name":"owner","type":"address"}],"name":"OwnableInvalidOwner","type":"error"},{"inputs":[{"internalType":"address","name":"account","type":"address"}],"name":"OwnableUnauthorizedAccount","type":"error"},{"anonymous":false,"inputs":[{"indexed":true,"internalType":"address","name":"previousOwner","type":"address"},{"indexed":true,"internalType":"address","name":"newOwner","type":"address"}],"name":"OwnershipTransferred","type":"event"},{"anonymous":false,"inputs":[{"indexed":false,"internalType":"string","name":"productId","type":"string"},{"indexed":false,"internalType":"string","name":"manufacturer","type":"string"},{"indexed":false,"internalType":"string","name":"model","type":"string"},{"indexed":false,"internalType":"address","name":"initialOwner","type":"address"}],"name":"ProductMinted","type":"event"},{"anonymous":false,"inputs":[{"indexed":false,"internalType":"string","name":"productId","type":"string"},{"indexed":false,"internalType":"address","name":"oldOwner","type":"address"},{"indexed":false,"internalType":"address","name":"newOwner","type":"address"}],"name":"ProductTransferred","type":"event"},{"inputs":[{"internalType":"string","name":"_productId","type":"string"},{"internalType":"string","name":"_manufacturer","type":"string"},{"internalType":"string","name":"_model","type":"string"}],"name":"addProduct","outputs":[],"stateMutability":"nonpayable","type":"function"},{"inputs":[],"name":"owner","outputs":[{"internalType":"address","name":"","type":"address"}],"stateMutability":"view","type":"function"},{"inputs":[{"internalType":"string","name":"","type":"string"}],"name":"products","outputs":[{"internalType":"string","name":"manufacturer","type":"string"},{"internalType":"string","name":"model","type":"string"},{"internalType":"uint256","name":"timestamp","type":"uint256"},{"internalType":"address","name":"currentOwner","type":"address"},{"internalType":"bool","name":"isMinted","type":"bool"}],"stateMutability":"view","type":"function"},{"inputs":[],"name":"renounceOwnership","outputs":[],"stateMutability":"nonpayable","type":"function"},{"inputs":[{"internalType":"string","name":"_productId","type":"string"},{"internalType":"address","name":"_newOwner","type":"address"}],"name":"transferOwnership","outputs":[],"stateMutability":"nonpayable","type":"function"},{"inputs":[{"internalType":"address","name":"newOwner","type":"address"}],"name":"transferOwnership","outputs":[],"stateMutability":"nonpayable","type":"function"},{"inputs":[{"internalType":"string","name":"_productId","type":"string"}],"name":"verifyProduct","outputs":[{"internalType":"bool","name":"exists","type":"bool"},{"internalType":"string","name":"manufacturer","type":"string"},{"internalType":"string","name":"model","type":"string"},{"internalType":"uint256","name":"timestamp","type":"uint256"},{"internalType":"address","name":"currentOwner","type":"address"}],"stateMutability":"view","type":"function"}],"evm":{"bytecode":{"linkReferences":{},"object":"608060405234801562000010575f80fd5b50335f73ffffffffffffffffffffffffffffffffffffffff168173ffffffffffffffffffffffffffffffffffffffff160362000085575f6040517f1e4fbdf70000000000000000000000000000000000000000000000000000000081526004016200007c9190620001a1565b60405180910390fd5b62000096816200009d60201b60201c565b50620001bc565b5f805f9054906101000a900473ffffffffffffffffffffffffffffffffffffffff169050815f806101000a81548173ffffffffffffffffffffffffffffffffffffffff021916908373ffffffffffffffffffffffffffffffffffffffff1602179055508173ffffffffffffffffffffffffffffffffffffffff168173ffffffffffffffffffffffffffffffffffffffff167f8be0079c531659141344cd1fd0a4f28419497f9722a3daafe3b4186f6b6457e060405160405180910390a35050565b5f73ffffffffffffffffffffffffffffffffffffffff82169050919050565b5f62000189826200015e565b9050919050565b6200019b816200017d565b82525050565b5f602082019050620001b65f83018462000190565b92915050565b6114ff80620001ca5f395ff3fe608060405234801561000f575f80fd5b506004361061007b575f3560e01c80638da5cb5b116100595780638da5cb5b146100d957806392efc453146100f7578063c0e793c21461012b578063f2fde38b146101475761007b565b80630186a4231461007f5780630e34b00e146100b3578063715018a6146100cf575b5f80fd5b61009960048036038101906100949190610c62565b610163565b6040516100aa959493929190610d94565b60405180910390f35b6100cd60048036038101906100c89190610df3565b6102e5565b005b6100d7610499565b005b6100e16104ac565b6040516100ee9190610e97565b60405180910390f35b610111600480360381019061010c9190610c62565b6104d3565b604051610122959493929190610eb0565b60405180910390f35b61014560048036038101906101409190610f39565b610706565b005b610161600480360381019061015c9190610f93565b610942565b005b6001818051602081018201805184825260208301602085012081835280955050505050505f91509050805f01805461019a90610feb565b80601f01602080910402602001604051908101604052809291908181526020018280546101c690610feb565b80156102115780601f106101e857610100808354040283529160200191610211565b820191905f5260205f20905b8154815290600101906020018083116101f457829003601f168201915b50505050509080600101805461022690610feb565b80601f016020809104026020016040519081016040528092919081815260200182805461025290610feb565b801561029d5780601f106102745761010080835404028352916020019161029d565b820191905f5260205f20905b81548152906001019060200180831161028057829003601f168201915b505050505090806002015490806003015f9054906101000a900473ffffffffffffffffffffffffffffffffffffffff16908060030160149054906101000a900460ff16905085565b6102ed6109c6565b6001836040516102fd9190611055565b908152602001604051809103902060030160149054906101000a900460ff161561035c576040517f08c379a0000000000000000000000000000000000000000000000000000000008152600401610353906110db565b60405180910390fd5b6040518060a001604052808381526020018281526020014281526020013373ffffffffffffffffffffffffffffffffffffffff168152602001600115158152506001846040516103ac9190611055565b90815260200160405180910390205f820151815f0190816103cd9190611296565b5060208201518160010190816103e39190611296565b50604082015181600201556060820151816003015f6101000a81548173ffffffffffffffffffffffffffffffffffffffff021916908373ffffffffffffffffffffffffffffffffffffffff16021790555060808201518160030160146101000a81548160ff0219169083151502179055509050507fc5db2301ed76f67eaa7874c785acd46ea3b94c1444ba544044534c5ffe113fa28383833360405161048c9493929190611365565b60405180910390a1505050565b6104a16109c6565b6104aa5f610a4d565b565b5f805f9054906101000a900473ffffffffffffffffffffffffffffffffffffffff16905090565b5f6060805f805f6001876040516104ea9190611055565b90815260200160405180910390206040518060a00160405290815f8201805461051290610feb565b80601f016020809104026020016040519081016040528092919081815260200182805461053e90610feb565b80156105895780601f1061056057610100808354040283529160200191610589565b820191905f5260205f20905b81548152906001019060200180831161056c57829003601f168201915b505050505081526020016001820180546105a290610feb565b80601f01602080910402602001604051908101604052809291908181526020018280546105ce90610feb565b80156106195780601f106105f057610100808354040283529160200191610619565b820191905f5260205f20905b8154815290600101906020018083116105fc57829003601f168201915b5050505050815260200160028201548152602001600382015f9054906101000a900473ffffffffffffffffffffffffffffffffffffffff1673ffffffffffffffffffffffffffffffffffffffff1673ffffffffffffffffffffffffffffffffffffffff1681526020016003820160149054906101000a900460ff161515151581525050905080608001516106dc575f805f60405180602001604052805f815250919060405180602001604052805f815250919095509550955095509550506106fd565b6001815f015182602001518360400151846060015195509550955095509550505b91939590929450565b6001826040516107169190611055565b908152602001604051809103902060030160149054906101000a900460ff16610774576040517f08c379a000000000000000000000000000000000000000000000000000000000815260040161076b90611407565b60405180910390fd5b3373ffffffffffffffffffffffffffffffffffffffff1660018360405161079b9190611055565b90815260200160405180910390206003015f9054906101000a900473ffffffffffffffffffffffffffffffffffffffff1673ffffffffffffffffffffffffffffffffffffffff16148061082057506107f16104ac565b73ffffffffffffffffffffffffffffffffffffffff163373ffffffffffffffffffffffffffffffffffffffff16145b61085f576040517f08c379a00000000000000000000000000000000000000000000000000000000081526004016108569061146f565b60405180910390fd5b5f6001836040516108709190611055565b90815260200160405180910390206003015f9054906101000a900473ffffffffffffffffffffffffffffffffffffffff169050816001846040516108b49190611055565b90815260200160405180910390206003015f6101000a81548173ffffffffffffffffffffffffffffffffffffffff021916908373ffffffffffffffffffffffffffffffffffffffff1602179055507f9b59ff059d6c04ad6bc0611444d658a2e1c70a894824b83b040b2aad6e14f0138382846040516109359392919061148d565b60405180910390a1505050565b61094a6109c6565b5f73ffffffffffffffffffffffffffffffffffffffff168173ffffffffffffffffffffffffffffffffffffffff16036109ba575f6040517f1e4fbdf70000000000000000000000000000000000000000000000000000000081526004016109b19190610e97565b60405180910390fd5b6109c381610a4d565b50565b6109ce610b0e565b73ffffffffffffffffffffffffffffffffffffffff166109ec6104ac565b73ffffffffffffffffffffffffffffffffffffffff1614610a4b57610a0f610b0e565b6040517f118cdaa7000000000000000000000000000000000000000000000000000000008152600401610a429190610e97565b60405180910390fd5b565b5f805f9054906101000a900473ffffffffffffffffffffffffffffffffffffffff169050815f806101000a81548173ffffffffffffffffffffffffffffffffffffffff021916908373ffffffffffffffffffffffffffffffffffffffff1602179055508173ffffffffffffffffffffffffffffffffffffffff168173ffffffffffffffffffffffffffffffffffffffff167f8be0079c531659141344cd1fd0a4f28419497f9722a3daafe3b4186f6b6457e060405160405180910390a35050565b5f33905090565b5f604051905090565b5f80fd5b5f80fd5b5f80fd5b5f80fd5b5f601f19601f8301169050919050565b7f4e487b71000000000000000000000000000000000000000000000000000000005f52604160045260245ffd5b610b7482610b2e565b810181811067ffffffffffffffff82111715610b9357610b92610b3e565b5b80604052505050565b5f610ba5610b15565b9050610bb18282610b6b565b919050565b5f67ffffffffffffffff821115610bd057610bcf610b3e565b5b610bd982610b2e565b9050602081019050919050565b828183375f83830152505050565b5f610c06610c0184610bb6565b610b9c565b905082815260208101848484011115610c2257610c21610b2a565b5b610c2d848285610be6565b509392505050565b5f82601f830112610c4957610c48610b26565b5b8135610c59848260208601610bf4565b91505092915050565b5f60208284031215610c7757610c76610b1e565b5b5f82013567ffffffffffffffff811115610c9457610c93610b22565b5b610ca084828501610c35565b91505092915050565b5f81519050919050565b5f82825260208201905092915050565b5f5b83811015610ce0578082015181840152602081019050610cc5565b5f8484015250505050565b5f610cf582610ca9565b610cff8185610cb3565b9350610d0f818560208601610cc3565b610d1881610b2e565b840191505092915050565b5f819050919050565b610d3581610d23565b82525050565b5f73ffffffffffffffffffffffffffffffffffffffff82169050919050565b5f610d6482610d3b565b9050919050565b610d7481610d5a565b82525050565b5f8115159050919050565b610d8e81610d7a565b82525050565b5f60a0820190508181035f830152610dac8188610ceb565b90508181036020830152610dc08187610ceb565b9050610dcf6040830186610d2c565b610ddc6060830185610d6b565b610de96080830184610d85565b9695505050505050565b5f805f60608486031215610e0a57610e09610b1e565b5b5f84013567ffffffffffffffff811115610e2757610e26610b22565b5b610e3386828701610c35565b935050602084013567ffffffffffffffff811115610e5457610e53610b22565b5b610e6086828701610c35565b925050604084013567ffffffffffffffff811115610e8157610e80610b22565b5b610e8d86828701610c35565b9150509250925092565b5f602082019050610eaa5f830184610d6b565b92915050565b5f60a082019050610ec35f830188610d85565b8181036020830152610ed58187610ceb565b90508181036040830152610ee98186610ceb565b9050610ef86060830185610d2c565b610f056080830184610d6b565b9695505050505050565b610f1881610d5a565b8114610f22575f80fd5b50565b5f81359050610f3381610f0f565b92915050565b5f8060408385031215610f4f57610f4e610b1e565b5b5f83013567ffffffffffffffff811115610f6c57610f6b610b22565b5b610f7885828601610c35565b9250506020610f8985828601610f25565b9150509250929050565b5f60208284031215610fa857610fa7610b1e565b5b5f610fb584828501610f25565b91505092915050565b7f4e487b71000000000000000000000000000000000000000000000000000000005f52602260045260245ffd5b5f600282049050600182168061100257607f821691505b60208210810361101557611014610fbe565b5b50919050565b5f81905092915050565b5f61102f82610ca9565b611039818561101b565b9350611049818560208601610cc3565b80840191505092915050565b5f6110608284611025565b915081905092915050565b7f50726f647563742077697468207468697320494420616c7265616479206578695f8201527f7374732100000000000000000000000000000000000000000000000000000000602082015250565b5f6110c5602483610cb3565b91506110d08261106b565b604082019050919050565b5f6020820190508181035f8301526110f2816110b9565b9050919050565b5f819050815f5260205f209050919050565b5f6020601f8301049050919050565b5f82821b905092915050565b5f600883026111557fffffffffffffffffffffffffffffffffffffffffffffffffffffffffffffffff8261111a565b61115f868361111a565b95508019841693508086168417925050509392505050565b5f819050919050565b5f61119a61119561119084610d23565b611177565b610d23565b9050919050565b5f819050919050565b6111b383611180565b6111c76111bf826111a1565b848454611126565b825550505050565b5f90565b6111db6111cf565b6111e68184846111aa565b505050565b5b81811015611209576111fe5f826111d3565b6001810190506111ec565b5050565b601f82111561124e5761121f816110f9565b6112288461110b565b81016020851015611237578190505b61124b6112438561110b565b8301826111eb565b50505b505050565b5f82821c905092915050565b5f61126e5f1984600802611253565b1980831691505092915050565b5f611286838361125f565b9150826002028217905092915050565b61129f82610ca9565b67ffffffffffffffff8111156112b8576112b7610b3e565b5b6112c28254610feb565b6112cd82828561120d565b5f60209050601f8311600181146112fe575f84156112ec578287015190505b6112f6858261127b565b86555061135d565b601f19841661130c866110f9565b5f5b828110156113335784890151825560018201915060208501945060208101905061130e565b86831015611350578489015161134c601f89168261125f565b8355505b6001600288020188555050505b505050505050565b5f6080820190508181035f83015261137d8187610ceb565b905081810360208301526113918186610ceb565b905081810360408301526113a58185610ceb565b90506113b46060830184610d6b565b95945050505050565b7f50726f6475637420646f6573206e6f742065786973742e0000000000000000005f82015250565b5f6113f1601783610cb3565b91506113fc826113bd565b602082019050919050565b5f6020820190508181035f83015261141e816113e5565b9050919050565b7f4e6f7420617574686f72697a656420746f207472616e736665722e00000000005f82015250565b5f611459601b83610cb3565b915061146482611425565b602082019050919050565b5f6020820190508181035f8301526114868161144d565b9050919050565b5f6060820190508181035f8301526114a58186610ceb565b90506114b46020830185610d6b565b6114c16040830184610d6b565b94935050505056fea2646970667358221220395e116f005cb91d7a711cfd059686648660f73624f09abbb6bf6ffa7717297d64736f6c63430008140033","opcodes":"PUSH1 0x80 PUSH1 0x40 MSTORE CALLVALUE DUP1 ISZERO PUSH3 0x10 JUMPI PUSH0 DUP1 REVERT JUMPDEST POP CALLER PUSH0 PUSH20 0xFFFFFFFFFFFFFFFFFFFFFFFFFFFFFFFFFFFFFFFF AND DUP2 PUSH20 0xFFFFFFFFFFFFFFFFFFFFFFFFFFFFFFFFFFFFFFFF AND SUB PUSH3 0x85 JUMPI PUSH0 PUSH1 0x40 MLOAD PUSH32 0x1E4FBDF700000000000000000000000000000000000000000000000000000000 DUP2 MSTORE PUSH1 0x4 ADD PUSH3 0x7C SWAP2 SWAP1 PUSH3 0x1A1 JUMP JUMPDEST PUSH1 0x40 MLOAD DUP1 SWAP2 SUB SWAP1 REVERT JUMPDEST PUSH3 0x96 DUP2 PUSH3 0x9D PUSH1 0x20 SHL PUSH1 0x20 SHR JUMP JUMPDEST POP PUSH3 0x1BC JUMP JUMPDEST PUSH0 DUP1 PUSH0 SWAP1 SLOAD SWAP1 PUSH2 0x100 EXP SWAP1 DIV PUSH20 0xFFFFFFFFFFFFFFFFFFFFFFFFFFFFFFFFFFFFFFFF AND SWAP1 POP DUP2 PUSH0 DUP1 PUSH2 0x100 EXP DUP2 SLOAD DUP2 PUSH20 0xFFFFFFFFFFFFFFFFFFFFFFFFFFFFFFFFFFFFFFFF MUL NOT AND SWAP1 DUP4 PUSH20 0xFFFFFFFFFFFFFFFFFFFFFFFFFFFFFFFFFFFFFFFF AND MUL OR SWAP1 SSTORE POP DUP2 PUSH20 0xFFFFFFFFFFFFFFFFFFFFFFFFFFFFFFFFFFFFFFFF AND DUP2 PUSH20 0xFFFFFFFFFFFFFFFFFFFFFFFFFFFFFFFFFFFFFFFF AND PUSH32 0x8BE0079C531659141344CD1FD0A4F28419497F9722A3DAAFE3B4186F6B6457E0 PUSH1 0x40 MLOAD PUSH1 0x40 MLOAD DUP1 SWAP2 SUB SWAP1 LOG3 POP POP JUMP JUMPDEST PUSH0 PUSH20 0xFFFFFFFFFFFFFFFFFFFFFFFFFFFFFFFFFFFFFFFF DUP3 AND SWAP1 POP SWAP2 SWAP1 POP JUMP JUMPDEST PUSH0 PUSH3 0x189 DUP3 PUSH3 0x15E JUMP JUMPDEST SWAP1 POP SWAP2 SWAP1 POP JUMP JUMPDEST PUSH3 0x19B DUP2 PUSH3 0x17D JUMP JUMPDEST DUP3 MSTORE POP POP JUMP JUMPDEST PUSH0 PUSH1 0x20 DUP3 ADD SWAP1 POP PUSH3 0x1B6 PUSH0 DUP4 ADD DUP5 PUSH3 0x190 JUMP JUMPDEST SWAP3 SWAP2 POP POP JUMP JUMPDEST PUSH2 0x14FF DUP1 PUSH3 0x1CA PUSH0 CODECOPY PUSH0 RETURN INVALID PUSH1 0x80 PUSH1 0x40 MSTORE CALLVALUE DUP1 ISZERO PUSH2 0xF JUMPI PUSH0 DUP1 REVERT JUMPDEST POP PUSH1 0x4 CALLDATASIZE LT PUSH2 0x7B JUMPI PUSH0 CALLDATALOAD PUSH1 0xE0 SHR DUP1 PUSH4 0x8DA5CB5B GT PUSH2 0x59 JUMPI DUP1 PUSH4 0x8DA5CB5B EQ PUSH2 0xD9 JUMPI DUP1 PUSH4 0x92EFC453 EQ PUSH2 0xF7 JUMPI DUP1 PUSH4 0xC0E793C2 EQ PUSH2 0x12B JUMPI DUP1 PUSH4 0xF2FDE38B EQ PUSH2 0x147 JUMPI PUSH2 0x7B JUMP JUMPDEST DUP1 PUSH4 0x186A423 EQ PUSH2 0x7F JUMPI DUP1 PUSH4 0xE34B00E EQ PUSH2 0xB3 JUMPI DUP1 PUSH4 0x715018A6 EQ PUSH2 0xCF JUMPI JUMPDEST PUSH0 DUP1 REVERT JUMPDEST PUSH2 0x99 PUSH1 0x4 DUP1 CALLDATASIZE SUB DUP2 ADD SWAP1 PUSH2 0x94 SWAP2 SWAP1 PUSH2 0xC62 JUMP JUMPDEST PUSH2 0x163 JUMP JUMPDEST PUSH1 0x40 MLOAD PUSH2 0xAA SWAP6 SWAP5 SWAP4 SWAP3 SWAP2 SWAP1 PUSH2 0xD94 JUMP JUMPDEST PUSH1 0x40 MLOAD DUP1 SWAP2 SUB SWAP1 RETURN JUMPDEST PUSH2 0xCD PUSH1 0x4 DUP1 CALLDATASIZE SUB DUP2 ADD SWAP1 PUSH2 0xC8 SWAP2 SWAP1 PUSH2 0xDF3 JUMP JUMPDEST PUSH2 0x2E5 JUMP JUMPDEST STOP JUMPDEST PUSH2 0xD7 PUSH2 0x499 JUMP JUMPDEST STOP JUMPDEST PUSH2 0xE1 PUSH2 0x4AC JUMP JUMPDEST PUSH1 0x40 MLOAD PUSH2 0xEE SWAP2 SWAP1 PUSH2 0xE97 JUMP JUMPDEST PUSH1 0x40 MLOAD DUP1 SWAP2 SUB SWAP1 RETURN JUMPDEST PUSH2 0x111 PUSH1 0x4 DUP1 CALLDATASIZE SUB DUP2 ADD SWAP1 PUSH2 0x10C SWAP2 SWAP1 PUSH2 0xC62 JUMP JUMPDEST PUSH2 0x4D3 JUMP JUMPDEST PUSH1 0x40 MLOAD PUSH2 0x122 SWAP6 SWAP5 SWAP4 SWAP3 SWAP2 SWAP1 PUSH2 0xEB0 JUMP JUMPDEST PUSH1 0x40 MLOAD DUP1 SWAP2 SUB SWAP1 RETURN JUMPDEST PUSH2 0x145 PUSH1 0x4 DUP1 CALLDATASIZE SUB DUP2 ADD SWAP1 PUSH2 0x140 SWAP2 SWAP1 PUSH2 0xF39 JUMP JUMPDEST PUSH2 0x706 JUMP JUMPDEST STOP JUMPDEST PUSH2 0x161 PUSH1 0x4 DUP1 CALLDATASIZE SUB DUP2 ADD SWAP1 PUSH2 0x15C SWAP2 SWAP1 PUSH2 0xF93 JUMP JUMPDEST PUSH2 0x942 JUMP JUMPDEST STOP JUMPDEST PUSH1 0x1 DUP2 DUP1 MLOAD PUSH1 0x20 DUP2 ADD DUP3 ADD DUP1 MLOAD DUP5 DUP3 MSTORE PUSH1 0x20 DUP4 ADD PUSH1 0x20 DUP6 ADD KECCAK256 DUP2 DUP4 MSTORE DUP1 SWAP6 POP POP POP POP POP POP PUSH0 SWAP2 POP SWAP1 POP DUP1 PUSH0 ADD DUP1 SLOAD PUSH2 0x19A SWAP1 PUSH2 0xFEB JUMP JUMPDEST DUP1 PUSH1 0x1F ADD PUSH1 0x20 DUP1 SWAP2 DIV MUL PUSH1 0x20 ADD PUSH1 0x40 MLOAD SWAP1 DUP2 ADD PUSH1 0x40 MSTORE DUP1 SWAP3 SWAP2 SWAP1 DUP2 DUP2 MSTORE PUSH1 0x20 ADD DUP3 DUP1 SLOAD PUSH2 0x1C6 SWAP1 PUSH2 0xFEB JUMP JUMPDEST DUP1 ISZERO PUSH2 0x211 JUMPI DUP1 PUSH1 0x1F LT PUSH2 0x1E8 JUMPI PUSH2 0x100 DUP1 DUP4 SLOAD DIV MUL DUP4 MSTORE SWAP2 PUSH1 0x20 ADD SWAP2 PUSH2 0x211 JUMP JUMPDEST DUP3 ADD SWAP2 SWAP1 PUSH0 MSTORE PUSH1 0x20 PUSH0 KECCAK256 SWAP1 JUMPDEST DUP2 SLOAD DUP2 MSTORE SWAP1 PUSH1 0x1 ADD SWAP1 PUSH1 0x20 ADD DUP1 DUP4 GT PUSH2 0x1F4 JUMPI DUP3 SWAP1 SUB PUSH1 0x1F AND DUP3 ADD SWAP2 JUMPDEST POP POP POP POP POP SWAP1 DUP1 PUSH1 0x1 ADD DUP1 SLOAD PUSH2 0x226 SWAP1 PUSH2 0xFEB JUMP JUMPDEST DUP1 PUSH1 0x1F ADD PUSH1 0x20 DUP1 SWAP2 DIV MUL PUSH1 0x20 ADD PUSH1 0x40 MLOAD SWAP1 DUP2 ADD PUSH1 0x40 MSTORE DUP1 SWAP3 SWAP2 SWAP1 DUP2 DUP2 MSTORE PUSH1 0x20 ADD DUP3 DUP1 SLOAD PUSH2 0x252 SWAP1 PUSH2 0xFEB JUMP JUMPDEST DUP1 ISZERO PUSH2 0x29D JUMPI DUP1 PUSH1 0x1F LT PUSH2 0x274 JUMPI PUSH2 0x100 DUP1 DUP4 SLOAD DIV MUL DUP4 MSTORE SWAP2 PUSH1 0x20 ADD SWAP2 PUSH2 0x29D JUMP JUMPDEST DUP3 ADD SWAP2 SWAP1 PUSH0 MSTORE PUSH1 0x20 PUSH0 KECCAK256 SWAP1 JUMPDEST DUP2 SLOAD DUP2 MSTORE SWAP1 PUSH1 0x1 ADD SWAP1 PUSH1 0x20 ADD DUP1 DUP4 GT PUSH2 0x280 JUMPI DUP3 SWAP1 SUB PUSH1 0x1F AND DUP3 ADD SWAP2 JUMPDEST POP POP POP POP POP SWAP1 DUP1 PUSH1 0x2 ADD SLOAD SWAP1 DUP1 PUSH1 0x3 ADD PUSH0 SWAP1 SLOAD SWAP1 PUSH2 0x100 EXP SWAP1 DIV PUSH20 0xFFFFFFFFFFFFFFFFFFFFFFFFFFFFFFFFFFFFFFFF AND SWAP1 DUP1 PUSH1 0x3 ADD PUSH1 0x14 SWAP1 SLOAD SWAP1 PUSH2 0x100 EXP SWAP1 DIV PUSH1 0xFF AND SWAP1 POP DUP6 JUMP JUMPDEST PUSH2 0x2ED PUSH2 0x9C6 JUMP JUMPDEST PUSH1 0x1 DUP4 PUSH1 0x40 MLOAD PUSH2 0x2FD SWAP2 SWAP1 PUSH2 0x1055 JUMP JUMPDEST SWAP1 DUP2 MSTORE PUSH1 0x20 ADD PUSH1 0x40 MLOAD DUP1 SWAP2 SUB SWAP1 KECCAK256 PUSH1 0x3 ADD PUSH1 0x14 SWAP1 SLOAD SWAP1 PUSH2 0x100 EXP SWAP1 DIV PUSH1 0xFF AND ISZERO PUSH2 0x35C JUMPI PUSH1 0x40 MLOAD PUSH32 0x8C379A000000000000000000000000000000000000000000000000000000000 DUP2 MSTORE PUSH1 0x4 ADD PUSH2 0x353 SWAP1 PUSH2 0x10DB JUMP JUMPDEST PUSH1 0x40 MLOAD DUP1 SWAP2 SUB SWAP1 REVERT JUMPDEST PUSH1 0x40 MLOAD DUP1 PUSH1 0xA0 ADD PUSH1 0x40 MSTORE DUP1 DUP4 DUP2 MSTORE PUSH1 0x20 ADD DUP3 DUP2 MSTORE PUSH1 0x20 ADD TIMESTAMP DUP2 MSTORE PUSH1 0x20 ADD CALLER PUSH20 0xFFFFFFFFFFFFFFFFFFFFFFFFFFFFFFFFFFFFFFFF AND DUP2 MSTORE PUSH1 0x20 ADD PUSH1 0x1 ISZERO ISZERO DUP2 MSTORE POP PUSH1 0x1 DUP5 PUSH1 0x40 MLOAD PUSH2 0x3AC SWAP2 SWAP1 PUSH2 0x1055 JUMP JUMPDEST SWAP1 DUP2 MSTORE PUSH1 0x20 ADD PUSH1 0x40 MLOAD DUP1 SWAP2 SUB SWAP1 KECCAK256 PUSH0 DUP3 ADD MLOAD DUP2 PUSH0 ADD SWAP1 DUP2 PUSH2 0x3CD SWAP2 SWAP1 PUSH2 0x1296 JUMP JUMPDEST POP PUSH1 0x20 DUP3 ADD MLOAD DUP2 PUSH1 0x1 ADD SWAP1 DUP2 PUSH2 0x3E3 SWAP2 SWAP1 PUSH2 0x1296 JUMP JUMPDEST POP PUSH1 0x40 DUP3 ADD MLOAD DUP2 PUSH1 0x2 ADD SSTORE PUSH1 0x60 DUP3 ADD MLOAD DUP2 PUSH1 0x3 ADD PUSH0 PUSH2 0x100 EXP DUP2 SLOAD DUP2 PUSH20 0xFFFFFFFFFFFFFFFFFFFFFFFFFFFFFFFFFFFFFFFF MUL NOT AND SWAP1 DUP4 PUSH20 0xFFFFFFFFFFFFFFFFFFFFFFFFFFFFFFFFFFFFFFFF AND MUL OR SWAP1 SSTORE POP PUSH1 0x80 DUP3 ADD MLOAD DUP2 PUSH1 0x3 ADD PUSH1 0x14 PUSH2 0x100 EXP DUP2 SLOAD DUP2 PUSH1 0xFF MUL NOT AND SWAP1 DUP4 ISZERO ISZERO MUL OR SWAP1 SSTORE POP SWAP1 POP POP PUSH32 0xC5DB2301ED76F67EAA7874C785ACD46EA3B94C1444BA544044534C5FFE113FA2 DUP4 DUP4 DUP4 CALLER PUSH1 0x40 MLOAD PUSH2 0x48C SWAP5 SWAP4 SWAP3 SWAP2 SWAP1 PUSH2 0x1365 JUMP JUMPDEST PUSH1 0x40 MLOAD DUP1 SWAP2 SUB SWAP1 LOG1 POP POP POP JUMP JUMPDEST PUSH2 0x4A1 PUSH2 0x9C6 JUMP JUMPDEST PUSH2 0x4AA PUSH0 PUSH2 0xA4D JUMP JUMPDEST JUMP JUMPDEST PUSH0 DUP1 PUSH0 SWAP1 SLOAD SWAP1 PUSH2 0x100 EXP SWAP1 DIV PUSH20 0xFFFFFFFFFFFFFFFFFFFFFFFFFFFFFFFFFFFFFFFF AND SWAP1 POP SWAP1 JUMP JUMPDEST PUSH0 PUSH1 0x60 DUP1 PUSH0 DUP1 PUSH0 PUSH1 0x1 DUP8 PUSH1 0x40 MLOAD PUSH2 0x4EA SWAP2 SWAP1 PUSH2 0x1055 JUMP JUMPDEST SWAP1 DUP2 MSTORE PUSH1 0x20 ADD PUSH1 0x40 MLOAD DUP1 SWAP2 SUB SWAP1 KECCAK256 PUSH1 0x40 MLOAD DUP1 PUSH1 0xA0 ADD PUSH1 0x40 MSTORE SWAP1 DUP2 PUSH0 DUP3 ADD DUP1 SLOAD PUSH2 0x512 SWAP1 PUSH2 0xFEB JUMP JUMPDEST DUP1 PUSH1 0x1F ADD PUSH1 0x20 DUP1 SWAP2 DIV MUL PUSH1 0x20 ADD PUSH1 0x40 MLOAD SWAP1 DUP2 ADD PUSH1 0x40 MSTORE DUP1 SWAP3 SWAP2 SWAP1 DUP2 DUP2 MSTORE PUSH1 0x20 ADD DUP3 DUP1 SLOAD PUSH2 0x53E SWAP1 PUSH2 0xFEB JUMP JUMPDEST DUP1 ISZERO PUSH2 0x589 JUMPI DUP1 PUSH1 0x1F LT PUSH2 0x560 JUMPI PUSH2 0x100 DUP1 DUP4 SLOAD DIV MUL DUP4 MSTORE SWAP2 PUSH1 0x20 ADD SWAP2 PUSH2 0x589 JUMP JUMPDEST DUP3 ADD SWAP2 SWAP1 PUSH0 MSTORE PUSH1 0x20 PUSH0 KECCAK256 SWAP1 JUMPDEST DUP2 SLOAD DUP2 MSTORE SWAP1 PUSH1 0x1 ADD SWAP1 PUSH1 0x20 ADD DUP1 DUP4 GT PUSH2 0x56C JUMPI DUP3 SWAP1 SUB PUSH1 0x1F AND DUP3 ADD SWAP2 JUMPDEST POP POP POP POP POP DUP2 MSTORE PUSH1 0x20 ADD PUSH1 0x1 DUP3 ADD DUP1 SLOAD PUSH2 0x5A2 SWAP1 PUSH2 0xFEB JUMP JUMPDEST DUP1 PUSH1 0x1F ADD PUSH1 0x20 DUP1 SWAP2 DIV MUL PUSH1 0x20 ADD PUSH1 0x40 MLOAD SWAP1 DUP2 ADD PUSH1 0x40 MSTORE DUP1 SWAP3 SWAP2 SWAP1 DUP2 DUP2 MSTORE PUSH1 0x20 ADD DUP3 DUP1 SLOAD PUSH2 0x5CE SWAP1 PUSH2 0xFEB JUMP JUMPDEST DUP1 ISZERO PUSH2 0x619 JUMPI DUP1 PUSH1 0x1F LT PUSH2 0x5F0 JUMPI PUSH2 0x100 DUP1 DUP4 SLOAD DIV MUL DUP4 MSTORE SWAP2 PUSH1 0x20 ADD SWAP2 PUSH2 0x619 JUMP JUMPDEST DUP3 ADD SWAP2 SWAP1 PUSH0 MSTORE PUSH1 0x20 PUSH0 KECCAK256 SWAP1 JUMPDEST DUP2 SLOAD DUP2 MSTORE SWAP1 PUSH1 0x1 ADD SWAP1 PUSH1 0x20 ADD DUP1 DUP4 GT PUSH2 0x5FC JUMPI DUP3 SWAP1 SUB PUSH1 0x1F AND DUP3 ADD SWAP2 JUMPDEST POP POP POP POP POP DUP2 MSTORE PUSH1 0x20 ADD PUSH1 0x2 DUP3 ADD SLOAD DUP2 MSTORE PUSH1 0x20 ADD PUSH1 0x3 DUP3 ADD PUSH0 SWAP1 SLOAD SWAP1 PUSH2 0x100 EXP SWAP1 DIV PUSH20 0xFFFFFFFFFFFFFFFFFFFFFFFFFFFFFFFFFFFFFFFF AND PUSH20 0xFFFFFFFFFFFFFFFFFFFFFFFFFFFFFFFFFFFFFFFF AND PUSH20 0xFFFFFFFFFFFFFFFFFFFFFFFFFFFFFFFFFFFFFFFF AND DUP2 MSTORE PUSH1 0x20 ADD PUSH1 0x3 DUP3 ADD PUSH1 0x14 SWAP1 SLOAD SWAP1 PUSH2 0x100 EXP SWAP1 DIV PUSH1 0xFF AND ISZERO ISZERO ISZERO ISZERO DUP2 MSTORE POP POP SWAP1 POP DUP1 PUSH1 0x80 ADD MLOAD PUSH2 0x6DC JUMPI PUSH0 DUP1 PUSH0 PUSH1 0x40 MLOAD DUP1 PUSH1 0x20 ADD PUSH1 0x40 MSTORE DUP1 PUSH0 DUP2 MSTORE POP SWAP2 SWAP1 PUSH1 0x40 MLOAD DUP1 PUSH1 0x20 ADD PUSH1 0x40 MSTORE DUP1 PUSH0 DUP2 MSTORE POP SWAP2 SWAP1 SWAP6 POP SWAP6 POP SWAP6 POP SWAP6 POP SWAP6 POP POP PUSH2 0x6FD JUMP JUMPDEST PUSH1 0x1 DUP2 PUSH0 ADD MLOAD DUP3 PUSH1 0x20 ADD MLOAD DUP4 PUSH1 0x40 ADD MLOAD DUP5 PUSH1 0x60 ADD MLOAD SWAP6 POP SWAP6 POP SWAP6 POP SWAP6 POP SWAP6 POP POP JUMPDEST SWAP2 SWAP4 SWAP6 SWAP1 SWAP3 SWAP5 POP JUMP JUMPDEST PUSH1 0x1 DUP3 PUSH1 0x40 MLOAD PUSH2 0x716 SWAP2 SWAP1 PUSH2 0x1055 JUMP JUMPDEST SWAP1 DUP2 MSTORE PUSH1 0x20 ADD PUSH1 0x40 MLOAD DUP1 SWAP2 SUB SWAP1 KECCAK256 PUSH1 0x3 ADD PUSH1 0x14 SWAP1 SLOAD SWAP1 PUSH2 0x100 EXP SWAP1 DIV PUSH1 0xFF AND PUSH2 0x774 JUMPI PUSH1 0x40 MLOAD PUSH32 0x8C379A000000000000000000000000000000000000000000000000000000000 DUP2 MSTORE PUSH1 0x4 ADD PUSH2 0x76B SWAP1 PUSH2 0x1407 JUMP JUMPDEST PUSH1 0x40 MLOAD DUP1 SWAP2 SUB SWAP1 REVERT JUMPDEST CALLER PUSH20 0xFFFFFFFFFFFFFFFFFFFFFFFFFFFFFFFFFFFFFFFF AND PUSH1 0x1 DUP4 PUSH1 0x40 MLOAD PUSH2 0x79B SWAP2 SWAP1 PUSH2 0x1055 JUMP JUMPDEST SWAP1 DUP2 MSTORE PUSH1 0x20 ADD PUSH1 0x40 MLOAD DUP1 SWAP2 SUB SWAP1 KECCAK256 PUSH1 0x3 ADD PUSH0 SWAP1 SLOAD SWAP1 PUSH2 0x100 EXP SWAP1 DIV PUSH20 0xFFFFFFFFFFFFFFFFFFFFFFFFFFFFFFFFFFFFFFFF AND PUSH20 0xFFFFFFFFFFFFFFFFFFFFFFFFFFFFFFFFFFFFFFFF AND EQ DUP1 PUSH2 0x820 JUMPI POP PUSH2 0x7F1 PUSH2 0x4AC JUMP JUMPDEST PUSH20 0xFFFFFFFFFFFFFFFFFFFFFFFFFFFFFFFFFFFFFFFF AND CALLER PUSH20 0xFFFFFFFFFFFFFFFFFFFFFFFFFFFFFFFFFFFFFFFF AND EQ JUMPDEST PUSH2 0x85F JUMPI PUSH1 0x40 MLOAD PUSH32 0x8C379A000000000000000000000000000000000000000000000000000000000 DUP2 MSTORE PUSH1 0x4 ADD PUSH2 0x856 SWAP1 PUSH2 0x146F JUMP JUMPDEST PUSH1 0x40 MLOAD DUP1 SWAP2 SUB SWAP1 REVERT JUMPDEST PUSH0 PUSH1 0x1 DUP4 PUSH1 0x40 MLOAD PUSH2 0x870 SWAP2 SWAP1 PUSH2 0x1055 JUMP JUMPDEST SWAP1 DUP2 MSTORE PUSH1 0x20 ADD PUSH1 0x40 MLOAD DUP1 SWAP2 SUB SWAP1 KECCAK256 PUSH1 0x3 ADD PUSH0 SWAP1 SLOAD SWAP1 PUSH2 0x100 EXP SWAP1 DIV PUSH20 0xFFFFFFFFFFFFFFFFFFFFFFFFFFFFFFFFFFFFFFFF AND SWAP1 POP DUP2 PUSH1 0x1 DUP5 PUSH1 0x40 MLOAD PUSH2 0x8B4 SWAP2 SWAP1 PUSH2 0x1055 JUMP JUMPDEST SWAP1 DUP2 MSTORE PUSH1 0x20 ADD PUSH1 0x40 MLOAD DUP1 SWAP2 SUB SWAP1 KECCAK256 PUSH1 0x3 ADD PUSH0 PUSH2 0x100 EXP DUP2 SLOAD DUP2 PUSH20 0xFFFFFFFFFFFFFFFFFFFFFFFFFFFFFFFFFFFFFFFF MUL NOT AND SWAP1 DUP4 PUSH20 0xFFFFFFFFFFFFFFFFFFFFFFFFFFFFFFFFFFFFFFFF AND MUL OR SWAP1 SSTORE POP PUSH32 0x9B59FF059D6C04AD6BC0611444D658A2E1C70A894824B83B040B2AAD6E14F013 DUP4 DUP3 DUP5 PUSH1 0x40 MLOAD PUSH2 0x935 SWAP4 SWAP3 SWAP2 SWAP1 PUSH2 0x148D JUMP JUMPDEST PUSH1 0x40 MLOAD DUP1 SWAP2 SUB SWAP1 LOG1 POP POP POP JUMP JUMPDEST PUSH2 0x94A PUSH2 0x9C6 JUMP JUMPDEST PUSH0 PUSH20 0xFFFFFFFFFFFFFFFFFFFFFFFFFFFFFFFFFFFFFFFF AND DUP2 PUSH20 0xFFFFFFFFFFFFFFFFFFFFFFFFFFFFFFFFFFFFFFFF AND SUB PUSH2 0x9BA JUMPI PUSH0 PUSH1 0x40 MLOAD PUSH32 0x1E4FBDF700000000000000000000000000000000000000000000000000000000 DUP2 MSTORE PUSH1 0x4 ADD PUSH2 0x9B1 SWAP2 SWAP1 PUSH2 0xE97 JUMP JUMPDEST PUSH1 0x40 MLOAD DUP1 SWAP2 SUB SWAP1 REVERT JUMPDEST PUSH2 0x9C3 DUP2 PUSH2 0xA4D JUMP JUMPDEST POP JUMP JUMPDEST PUSH2 0x9CE PUSH2 0xB0E JUMP JUMPDEST PUSH20 0xFFFFFFFFFFFFFFFFFFFFFFFFFFFFFFFFFFFFFFFF AND PUSH2 0x9EC PUSH2 0x4AC JUMP JUMPDEST PUSH20 0xFFFFFFFFFFFFFFFFFFFFFFFFFFFFFFFFFFFFFFFF AND EQ PUSH2 0xA4B JUMPI PUSH2 0xA0F PUSH2 0xB0E JUMP JUMPDEST PUSH1 0x40 MLOAD PUSH32 0x118CDAA700000000000000000000000000000000000000000000000000000000 DUP2 MSTORE PUSH1 0x4 ADD PUSH2 0xA42 SWAP2 SWAP1 PUSH2 0xE97 JUMP JUMPDEST PUSH1 0x40 MLOAD DUP1 SWAP2 SUB SWAP1 REVERT JUMPDEST JUMP JUMPDEST PUSH0 DUP1 PUSH0 SWAP1 SLOAD SWAP1 PUSH2 0x100 EXP SWAP1 DIV PUSH20 0xFFFFFFFFFFFFFFFFFFFFFFFFFFFFFFFFFFFFFFFF AND SWAP1 POP DUP2 PUSH0 DUP1 PUSH2 0x100 EXP DUP2 SLOAD DUP2 PUSH20 0xFFFFFFFFFFFFFFFFFFFFFFFFFFFFFFFFFFFFFFFF MUL NOT AND SWAP1 DUP4 PUSH20 0xFFFFFFFFFFFFFFFFFFFFFFFFFFFFFFFFFFFFFFFF AND MUL OR SWAP1 SSTORE POP DUP2 PUSH20 0xFFFFFFFFFFFFFFFFFFFFFFFFFFFFFFFFFFFFFFFF AND DUP2 PUSH20 0xFFFFFFFFFFFFFFFFFFFFFFFFFFFFFFFFFFFFFFFF AND PUSH32 0x8BE0079C531659141344CD1FD0A4F28419497F9722A3DAAFE3B4186F6B6457E0 PUSH1 0x40 MLOAD PUSH1 0x40 MLOAD DUP1 SWAP2 SUB SWAP1 LOG3 POP POP JUMP JUMPDEST PUSH0 CALLER SWAP1 POP SWAP1 JUMP JUMPDEST PUSH0 PUSH1 0x40 MLOAD SWAP1 POP SWAP1 JUMP JUMPDEST PUSH0 DUP1 REVERT JUMPDEST PUSH0 DUP1 REVERT JUMPDEST PUSH0 DUP1 REVERT JUMPDEST PUSH0 DUP1 REVERT JUMPDEST PUSH0 PUSH1 0x1F NOT PUSH1 0x1F DUP4 ADD AND SWAP1 POP SWAP2 SWAP1 POP JUMP JUMPDEST PUSH32 0x4E487B7100000000000000000000000000000000000000000000000000000000 PUSH0 MSTORE PUSH1 0x41 PUSH1 0x4 MSTORE PUSH1 0x24 PUSH0 REVERT JUMPDEST PUSH2 0xB74 DUP3 PUSH2 0xB2E JUMP JUMPDEST DUP2 ADD DUP2 DUP2 LT PUSH8 0xFFFFFFFFFFFFFFFF DUP3 GT OR ISZERO PUSH2 0xB93 JUMPI PUSH2 0xB92 PUSH2 0xB3E JUMP JUMPDEST JUMPDEST DUP1 PUSH1 0x40 MSTORE POP POP POP JUMP JUMPDEST PUSH0 PUSH2 0xBA5 PUSH2 0xB15 JUMP JUMPDEST SWAP1 POP PUSH2 0xBB1 DUP3 DUP3 PUSH2 0xB6B JUMP JUMPDEST SWAP2 SWAP1 POP JUMP JUMPDEST PUSH0 PUSH8 0xFFFFFFFFFFFFFFFF DUP3 GT ISZERO PUSH2 0xBD0 JUMPI PUSH2 0xBCF PUSH2 0xB3E JUMP JUMPDEST JUMPDEST PUSH2 0xBD9 DUP3 PUSH2 0xB2E JUMP JUMPDEST SWAP1 POP PUSH1 0x20 DUP2 ADD SWAP1 POP SWAP2 SWAP1 POP JUMP JUMPDEST DUP3 DUP2 DUP4 CALLDATACOPY PUSH0 DUP4 DUP4 ADD MSTORE POP POP POP JUMP JUMPDEST PUSH0 PUSH2 0xC06 PUSH2 0xC01 DUP5 PUSH2 0xBB6 JUMP JUMPDEST PUSH2 0xB9C JUMP JUMPDEST SWAP1 POP DUP3 DUP2 MSTORE PUSH1 0x20 DUP2 ADD DUP5 DUP5 DUP5 ADD GT ISZERO PUSH2 0xC22 JUMPI PUSH2 0xC21 PUSH2 0xB2A JUMP JUMPDEST JUMPDEST PUSH2 0xC2D DUP5 DUP3 DUP6 PUSH2 0xBE6 JUMP JUMPDEST POP SWAP4 SWAP3 POP POP POP JUMP JUMPDEST PUSH0 DUP3 PUSH1 0x1F DUP4 ADD SLT PUSH2 0xC49 JUMPI PUSH2 0xC48 PUSH2 0xB26 JUMP JUMPDEST JUMPDEST DUP2 CALLDATALOAD PUSH2 0xC59 DUP5 DUP3 PUSH1 0x20 DUP7 ADD PUSH2 0xBF4 JUMP JUMPDEST SWAP2 POP POP SWAP3 SWAP2 POP POP JUMP JUMPDEST PUSH0 PUSH1 0x20 DUP3 DUP5 SUB SLT ISZERO PUSH2 0xC77 JUMPI PUSH2 0xC76 PUSH2 0xB1E JUMP JUMPDEST JUMPDEST PUSH0 DUP3 ADD CALLDATALOAD PUSH8 0xFFFFFFFFFFFFFFFF DUP2 GT ISZERO PUSH2 0xC94 JUMPI PUSH2 0xC93 PUSH2 0xB22 JUMP JUMPDEST JUMPDEST PUSH2 0xCA0 DUP5 DUP3 DUP6 ADD PUSH2 0xC35 JUMP JUMPDEST SWAP2 POP POP SWAP3 SWAP2 POP POP JUMP JUMPDEST PUSH0 DUP2 MLOAD SWAP1 POP SWAP2 SWAP1 POP JUMP JUMPDEST PUSH0 DUP3 DUP3 MSTORE PUSH1 0x20 DUP3 ADD SWAP1 POP SWAP3 SWAP2 POP POP JUMP JUMPDEST PUSH0 JUMPDEST DUP4 DUP2 LT ISZERO PUSH2 0xCE0 JUMPI DUP1 DUP3 ADD MLOAD DUP2 DUP5 ADD MSTORE PUSH1 0x20 DUP2 ADD SWAP1 POP PUSH2 0xCC5 JUMP JUMPDEST PUSH0 DUP5 DUP5 ADD MSTORE POP POP POP POP JUMP JUMPDEST PUSH0 PUSH2 0xCF5 DUP3 PUSH2 0xCA9 JUMP JUMPDEST PUSH2 0xCFF DUP2 DUP6 PUSH2 0xCB3 JUMP JUMPDEST SWAP4 POP PUSH2 0xD0F DUP2 DUP6 PUSH1 0x20 DUP7 ADD PUSH2 0xCC3 JUMP JUMPDEST PUSH2 0xD18 DUP2 PUSH2 0xB2E JUMP JUMPDEST DUP5 ADD SWAP2 POP POP SWAP3 SWAP2 POP POP JUMP JUMPDEST PUSH0 DUP2 SWAP1 POP SWAP2 SWAP1 POP JUMP JUMPDEST PUSH2 0xD35 DUP2 PUSH2 0xD23 JUMP JUMPDEST DUP3 MSTORE POP POP JUMP JUMPDEST PUSH0 PUSH20 0xFFFFFFFFFFFFFFFFFFFFFFFFFFFFFFFFFFFFFFFF DUP3 AND SWAP1 POP SWAP2 SWAP1 POP JUMP JUMPDEST PUSH0 PUSH2 0xD64 DUP3 PUSH2 0xD3B JUMP JUMPDEST SWAP1 POP SWAP2 SWAP1 POP JUMP JUMPDEST PUSH2 0xD74 DUP2 PUSH2 0xD5A JUMP JUMPDEST DUP3 MSTORE POP POP JUMP JUMPDEST PUSH0 DUP2 ISZERO ISZERO SWAP1 POP SWAP2 SWAP1 POP JUMP JUMPDEST PUSH2 0xD8E DUP2 PUSH2 0xD7A JUMP JUMPDEST DUP3 MSTORE POP POP JUMP JUMPDEST PUSH0 PUSH1 0xA0 DUP3 ADD SWAP1 POP DUP2 DUP2 SUB PUSH0 DUP4 ADD MSTORE PUSH2 0xDAC DUP2 DUP9 PUSH2 0xCEB JUMP JUMPDEST SWAP1 POP DUP2 DUP2 SUB PUSH1 0x20 DUP4 ADD MSTORE PUSH2 0xDC0 DUP2 DUP8 PUSH2 0xCEB JUMP JUMPDEST SWAP1 POP PUSH2 0xDCF PUSH1 0x40 DUP4 ADD DUP7 PUSH2 0xD2C JUMP JUMPDEST PUSH2 0xDDC PUSH1 0x60 DUP4 ADD DUP6 PUSH2 0xD6B JUMP JUMPDEST PUSH2 0xDE9 PUSH1 0x80 DUP4 ADD DUP5 PUSH2 0xD85 JUMP JUMPDEST SWAP7 SWAP6 POP POP POP POP POP POP JUMP JUMPDEST PUSH0 DUP1 PUSH0 PUSH1 0x60 DUP5 DUP7 SUB SLT ISZERO PUSH2 0xE0A JUMPI PUSH2 0xE09 PUSH2 0xB1E JUMP JUMPDEST JUMPDEST PUSH0 DUP5 ADD CALLDATALOAD PUSH8 0xFFFFFFFFFFFFFFFF DUP2 GT ISZERO PUSH2 0xE27 JUMPI PUSH2 0xE26 PUSH2 0xB22 JUMP JUMPDEST JUMPDEST PUSH2 0xE33 DUP7 DUP3 DUP8 ADD PUSH2 0xC35 JUMP JUMPDEST SWAP4 POP POP PUSH1 0x20 DUP5 ADD CALLDATALOAD PUSH8 0xFFFFFFFFFFFFFFFF DUP2 GT ISZERO PUSH2 0xE54 JUMPI PUSH2 0xE53 PUSH2 0xB22 JUMP JUMPDEST JUMPDEST PUSH2 0xE60 DUP7 DUP3 DUP8 ADD PUSH2 0xC35 JUMP JUMPDEST SWAP3 POP POP PUSH1 0x40 DUP5 ADD CALLDATALOAD PUSH8 0xFFFFFFFFFFFFFFFF DUP2 GT ISZERO PUSH2 0xE81 JUMPI PUSH2 0xE80 PUSH2 0xB22 JUMP JUMPDEST JUMPDEST PUSH2 0xE8D DUP7 DUP3 DUP8 ADD PUSH2 0xC35 JUMP JUMPDEST SWAP2 POP POP SWAP3 POP SWAP3 POP SWAP3 JUMP JUMPDEST PUSH0 PUSH1 0x20 DUP3 ADD SWAP1 POP PUSH2 0xEAA PUSH0 DUP4 ADD DUP5 PUSH2 0xD6B JUMP JUMPDEST SWAP3 SWAP2 POP POP JUMP JUMPDEST PUSH0 PUSH1 0xA0 DUP3 ADD SWAP1 POP PUSH2 0xEC3 PUSH0 DUP4 ADD DUP9 PUSH2 0xD85 JUMP JUMPDEST DUP2 DUP2 SUB PUSH1 0x20 DUP4 ADD MSTORE PUSH2 0xED5 DUP2 DUP8 PUSH2 0xCEB JUMP JUMPDEST SWAP1 POP DUP2 DUP2 SUB PUSH1 0x40 DUP4 ADD MSTORE PUSH2 0xEE9 DUP2 DUP7 PUSH2 0xCEB JUMP JUMPDEST SWAP1 POP PUSH2 0xEF8 PUSH1 0x60 DUP4 ADD DUP6 PUSH2 0xD2C JUMP JUMPDEST PUSH2 0xF05 PUSH1 0x80 DUP4 ADD DUP5 PUSH2 0xD6B JUMP JUMPDEST SWAP7 SWAP6 POP POP POP POP POP POP JUMP JUMPDEST PUSH2 0xF18 DUP2 PUSH2 0xD5A JUMP JUMPDEST DUP2 EQ PUSH2 0xF22 JUMPI PUSH0 DUP1 REVERT JUMPDEST POP JUMP JUMPDEST PUSH0 DUP2 CALLDATALOAD SWAP1 POP PUSH2 0xF33 DUP2 PUSH2 0xF0F JUMP JUMPDEST SWAP3 SWAP2 POP POP JUMP JUMPDEST PUSH0 DUP1 PUSH1 0x40 DUP4 DUP6 SUB SLT ISZERO PUSH2 0xF4F JUMPI PUSH2 0xF4E PUSH2 0xB1E JUMP JUMPDEST JUMPDEST PUSH0 DUP4 ADD CALLDATALOAD PUSH8 0xFFFFFFFFFFFFFFFF DUP2 GT ISZERO PUSH2 0xF6C JUMPI PUSH2 0xF6B PUSH2 0xB22 JUMP JUMPDEST JUMPDEST PUSH2 0xF78 DUP6 DUP3 DUP7 ADD PUSH2 0xC35 JUMP JUMPDEST SWAP3 POP POP PUSH1 0x20 PUSH2 0xF89 DUP6 DUP3 DUP7 ADD PUSH2 0xF25 JUMP JUMPDEST SWAP2 POP POP SWAP3 POP SWAP3 SWAP1 POP JUMP JUMPDEST PUSH0 PUSH1 0x20 DUP3 DUP5 SUB SLT ISZERO PUSH2 0xFA8 JUMPI PUSH2 0xFA7 PUSH2 0xB1E JUMP JUMPDEST JUMPDEST PUSH0 PUSH2 0xFB5 DUP5 DUP3 DUP6 ADD PUSH2 0xF25 JUMP JUMPDEST SWAP2 POP POP SWAP3 SWAP2 POP POP JUMP JUMPDEST PUSH32 0x4E487B7100000000000000000000000000000000000000000000000000000000 PUSH0 MSTORE PUSH1 0x22 PUSH1 0x4 MSTORE PUSH1 0x24 PUSH0 REVERT JUMPDEST PUSH0 PUSH1 0x2 DUP3 DIV SWAP1 POP PUSH1 0x1 DUP3 AND DUP1 PUSH2 0x1002 JUMPI PUSH1 0x7F DUP3 AND SWAP2 POP JUMPDEST PUSH1 0x20 DUP3 LT DUP2 SUB PUSH2 0x1015 JUMPI PUSH2 0x1014 PUSH2 0xFBE JUMP JUMPDEST JUMPDEST POP SWAP2 SWAP1 POP JUMP JUMPDEST PUSH0 DUP2 SWAP1 POP SWAP3 SWAP2 POP POP JUMP JUMPDEST PUSH0 PUSH2 0x102F DUP3 PUSH2 0xCA9 JUMP JUMPDEST PUSH2 0x1039 DUP2 DUP6 PUSH2 0x101B JUMP JUMPDEST SWAP4 POP PUSH2 0x1049 DUP2 DUP6 PUSH1 0x20 DUP7 ADD PUSH2 0xCC3 JUMP JUMPDEST DUP1 DUP5 ADD SWAP2 POP POP SWAP3 SWAP2 POP POP JUMP JUMPDEST PUSH0 PUSH2 0x1060 DUP3 DUP5 PUSH2 0x1025 JUMP JUMPDEST SWAP2 POP DUP2 SWAP1 POP SWAP3 SWAP2 POP POP JUMP JUMPDEST PUSH32 0x50726F647563742077697468207468697320494420616C726561647920657869 PUSH0 DUP3 ADD MSTORE PUSH32 0x7374732100000000000000000000000000000000000000000000000000000000 PUSH1 0x20 DUP3 ADD MSTORE POP JUMP JUMPDEST PUSH0 PUSH2 0x10C5 PUSH1 0x24 DUP4 PUSH2 0xCB3 JUMP JUMPDEST SWAP2 POP PUSH2 0x10D0 DUP3 PUSH2 0x106B JUMP JUMPDEST PUSH1 0x40 DUP3 ADD SWAP1 POP SWAP2 SWAP1 POP JUMP JUMPDEST PUSH0 PUSH1 0x20 DUP3 ADD SWAP1 POP DUP2 DUP2 SUB PUSH0 DUP4 ADD MSTORE PUSH2 0x10F2 DUP2 PUSH2 0x10B9 JUMP JUMPDEST SWAP1 POP SWAP2 SWAP1 POP JUMP JUMPDEST PUSH0 DUP2 SWAP1 POP DUP2 PUSH0 MSTORE PUSH1 0x20 PUSH0 KECCAK256 SWAP1 POP SWAP2 SWAP1 POP JUMP JUMPDEST PUSH0 PUSH1 0x20 PUSH1 0x1F DUP4 ADD DIV SWAP1 POP SWAP2 SWAP1 POP JUMP JUMPDEST PUSH0 DUP3 DUP3 SHL SWAP1 POP SWAP3 SWAP2 POP POP JUMP JUMPDEST PUSH0 PUSH1 0x8 DUP4 MUL PUSH2 0x1155 PUSH32 0xFFFFFFFFFFFFFFFFFFFFFFFFFFFFFFFFFFFFFFFFFFFFFFFFFFFFFFFFFFFFFFFF DUP3 PUSH2 0x111A JUMP JUMPDEST PUSH2 0x115F DUP7 DUP4 PUSH2 0x111A JUMP JUMPDEST SWAP6 POP DUP1 NOT DUP5 AND SWAP4 POP DUP1 DUP7 AND DUP5 OR SWAP3 POP POP POP SWAP4 SWAP3 POP POP POP JUMP JUMPDEST PUSH0 DUP2 SWAP1 POP SWAP2 SWAP1 POP JUMP JUMPDEST PUSH0 PUSH2 0x119A PUSH2 0x1195 PUSH2 0x1190 DUP5 PUSH2 0xD23 JUMP JUMPDEST PUSH2 0x1177 JUMP JUMPDEST PUSH2 0xD23 JUMP JUMPDEST SWAP1 POP SWAP2 SWAP1 POP JUMP JUMPDEST PUSH0 DUP2 SWAP1 POP SWAP2 SWAP1 POP JUMP JUMPDEST PUSH2 0x11B3 DUP4 PUSH2 0x1180 JUMP JUMPDEST PUSH2 0x11C7 PUSH2 0x11BF DUP3 PUSH2 0x11A1 JUMP JUMPDEST DUP5 DUP5 SLOAD PUSH2 0x1126 JUMP JUMPDEST DUP3 SSTORE POP POP POP POP JUMP JUMPDEST PUSH0 SWAP1 JUMP JUMPDEST PUSH2 0x11DB PUSH2 0x11CF JUMP JUMPDEST PUSH2 0x11E6 DUP2 DUP5 DUP5 PUSH2 0x11AA JUMP JUMPDEST POP POP POP JUMP JUMPDEST JUMPDEST DUP2 DUP2 LT ISZERO PUSH2 0x1209 JUMPI PUSH2 0x11FE PUSH0 DUP3 PUSH2 0x11D3 JUMP JUMPDEST PUSH1 0x1 DUP2 ADD SWAP1 POP PUSH2 0x11EC JUMP JUMPDEST POP POP JUMP JUMPDEST PUSH1 0x1F DUP3 GT ISZERO PUSH2 0x124E JUMPI PUSH2 0x121F DUP2 PUSH2 0x10F9 JUMP JUMPDEST PUSH2 0x1228 DUP5 PUSH2 0x110B JUMP JUMPDEST DUP2 ADD PUSH1 0x20 DUP6 LT ISZERO PUSH2 0x1237 JUMPI DUP2 SWAP1 POP JUMPDEST PUSH2 0x124B PUSH2 0x1243 DUP6 PUSH2 0x110B JUMP JUMPDEST DUP4 ADD DUP3 PUSH2 0x11EB JUMP JUMPDEST POP POP JUMPDEST POP POP POP JUMP JUMPDEST PUSH0 DUP3 DUP3 SHR SWAP1 POP SWAP3 SWAP2 POP POP JUMP JUMPDEST PUSH0 PUSH2 0x126E PUSH0 NOT DUP5 PUSH1 0x8 MUL PUSH2 0x1253 JUMP JUMPDEST NOT DUP1 DUP4 AND SWAP2 POP POP SWAP3 SWAP2 POP POP JUMP JUMPDEST PUSH0 PUSH2 0x1286 DUP4 DUP4 PUSH2 0x125F JUMP JUMPDEST SWAP2 POP DUP3 PUSH1 0x2 MUL DUP3 OR SWAP1 POP SWAP3 SWAP2 POP POP JUMP JUMPDEST PUSH2 0x129F DUP3 PUSH2 0xCA9 JUMP JUMPDEST PUSH8 0xFFFFFFFFFFFFFFFF DUP2 GT ISZERO PUSH2 0x12B8 JUMPI PUSH2 0x12B7 PUSH2 0xB3E JUMP JUMPDEST JUMPDEST PUSH2 0x12C2 DUP3 SLOAD PUSH2 0xFEB JUMP JUMPDEST PUSH2 0x12CD DUP3 DUP3 DUP6 PUSH2 0x120D JUMP JUMPDEST PUSH0 PUSH1 0x20 SWAP1 POP PUSH1 0x1F DUP4 GT PUSH1 0x1 DUP2 EQ PUSH2 0x12FE JUMPI PUSH0 DUP5 ISZERO PUSH2 0x12EC JUMPI DUP3 DUP8 ADD MLOAD SWAP1 POP JUMPDEST PUSH2 0x12F6 DUP6 DUP3 PUSH2 0x127B JUMP JUMPDEST DUP7 SSTORE POP PUSH2 0x135D JUMP JUMPDEST PUSH1 0x1F NOT DUP5 AND PUSH2 0x130C DUP7 PUSH2 0x10F9 JUMP JUMPDEST PUSH0 JUMPDEST DUP3 DUP2 LT ISZERO PUSH2 0x1333 JUMPI DUP5 DUP10 ADD MLOAD DUP3 SSTORE PUSH1 0x1 DUP3 ADD SWAP2 POP PUSH1 0x20 DUP6 ADD SWAP5 POP PUSH1 0x20 DUP2 ADD SWAP1 POP PUSH2 0x130E JUMP JUMPDEST DUP7 DUP4 LT ISZERO PUSH2 0x1350 JUMPI DUP5 DUP10 ADD MLOAD PUSH2 0x134C PUSH1 0x1F DUP10 AND DUP3 PUSH2 0x125F JUMP JUMPDEST DUP4 SSTORE POP JUMPDEST PUSH1 0x1 PUSH1 0x2 DUP9 MUL ADD DUP9 SSTORE POP POP POP JUMPDEST POP POP POP POP POP POP JUMP JUMPDEST PUSH0 PUSH1 0x80 DUP3 ADD SWAP1 POP DUP2 DUP2 SUB PUSH0 DUP4 ADD MSTORE PUSH2 0x137D DUP2 DUP8 PUSH2 0xCEB JUMP JUMPDEST SWAP1 POP DUP2 DUP2 SUB PUSH1 0x20 DUP4 ADD MSTORE PUSH2 0x1391 DUP2 DUP7 PUSH2 0xCEB JUMP JUMPDEST SWAP1 POP DUP2 DUP2 SUB PUSH1 0x40 DUP4 ADD MSTORE PUSH2 0x13A5 DUP2 DUP6 PUSH2 0xCEB JUMP JUMPDEST SWAP1 POP PUSH2 0x13B4 PUSH1 0x60 DUP4 ADD DUP5 PUSH2 0xD6B JUMP JUMPDEST SWAP6 SWAP5 POP POP POP POP POP JUMP JUMPDEST PUSH32 0x50726F6475637420646F6573206E6F742065786973742E000000000000000000 PUSH0 DUP3 ADD MSTORE POP JUMP JUMPDEST PUSH0 PUSH2 0x13F1 PUSH1 0x17 DUP4 PUSH2 0xCB3 JUMP JUMPDEST SWAP2 POP PUSH2 0x13FC DUP3 PUSH2 0x13BD JUMP JUMPDEST PUSH1 0x20 DUP3 ADD SWAP1 POP SWAP2 SWAP1 POP JUMP JUMPDEST PUSH0 PUSH1 0x20 DUP3 ADD SWAP1 POP DUP2 DUP2 SUB PUSH0 DUP4 ADD MSTORE PUSH2 0x141E DUP2 PUSH2 0x13E5 JUMP JUMPDEST SWAP1 POP SWAP2 SWAP1 POP JUMP JUMPDEST PUSH32 0x4E6F7420617574686F72697A656420746F207472616E736665722E0000000000 PUSH0 DUP3 ADD MSTORE POP JUMP JUMPDEST PUSH0 PUSH2 0x1459 PUSH1 0x1B DUP4 PUSH2 0xCB3 JUMP JUMPDEST SWAP2 POP PUSH2 0x1464 DUP3 PUSH2 0x1425 JUMP JUMPDEST PUSH1 0x20 DUP3 ADD SWAP1 POP SWAP2 SWAP1 POP JUMP JUMPDEST PUSH0 PUSH1 0x20 DUP3 ADD SWAP1 POP DUP2 DUP2 SUB PUSH0 DUP4 ADD MSTORE PUSH2 0x1486 DUP2 PUSH2 0x144D JUMP JUMPDEST SWAP1 POP SWAP2 SWAP1 POP JUMP JUMPDEST PUSH0 PUSH1 0x60 DUP3 ADD SWAP1 POP DUP2 DUP2 SUB PUSH0 DUP4 ADD MSTORE PUSH2 0x14A5 DUP2 DUP7 PUSH2 0xCEB JUMP JUMPDEST SWAP1 POP PUSH2 0x14B4 PUSH1 0x20 DUP4 ADD DUP6 PUSH2 0xD6B JUMP JUMPDEST PUSH2 0x14C1 PUSH1 0x40 DUP4 ADD DUP5 PUSH2 0xD6B JUMP JUMPDEST SWAP5 SWAP4 POP POP POP POP JUMP INVALID LOG2 PUSH5 0x6970667358 0x22 SLT KECCAK256 CODECOPY 0x5E GT PUSH16 0x5CB91D7A711CFD059686648660F736 0x24 CREATE SWAP11 0xBB 0xB6 0xBF PUSH16 0xFA7717297D64736F6C63430008140033 "},"methodIdentifiers":{"addProduct(string,string,string)":"0e34b00e","owner()":"8da5cb5b","products(string)":"0186a423","renounceOwnership()":"715018a6","transferOwnership(address)":"f2fde38b","transferOwnership(string,address)":"c0e793c2","verifyProduct(string)":"92efc453"}}}}}